:1000000000308A00FD280000263084008313000899
:10001000031918280130F800F701F70B0D28F80B29
:100020000C284A30F700F70B13281628800B0A28F3
:100030000800851B2828051B282806118610061491
:100040002008A600042006102008A6000420192875
:100050000615851F6728A201A10108183D288612F0
:10006000061286152008A600042086112008A60086
:100070000420A10A0319A20A2D28851A4A2806116C
:10008000861406142008A600042006102008A600E6
:1000900004203D280615A501A40125082202031C01
:1000A0006528031D57282108240203186528861295
:1000B000061686152008A600042086112008A60032
:1000C0000420A40A0319A50A4D2886167728051FBF
:1000D0007728851A76280611861406142008A600AB
:1000E000042006102008A60004206928061585159E
:1000F000C830A600042085118A110A1231298819F6
:100100008E2808198E280710861306172008A600C7
:10011000042006132008A60004207F280714881D49
:10012000CD28A201A101081AA3288711071187145D
:100130002008A600042087102008A6000420A10A99
:100140000319A20A93288818B028071086170617E3
:100150002008A600042006132008A6000420A328D7
:100160000714A501A40125082202031CCB28031DA6
:10017000BD28210824020318CB28871107158714EE
:100180002008A600042087102008A6000420A40A46
:100190000319A50AB3288715DD28081DDD2888184E
:1001A000DC280710861706172008A600042006136F
:1001B0002008A6000420CF2807148515C830A60003
:1001C000042085118A110A123329881EE92807168E
:1001D000E528081FF028051685110712EB28FA28D4
:1001E000881AF4280716F02807128515C830A600CB
:1001F000042085118A110A12352903081F3983004A
:10020000613083168F0090010F080A308312A0001E
:10021000A201A101FF30A300831603170908C0390A
:10022000890003131F129F120030031788008312E6
:100230008701880189018313E73083160313850042
:100240000030860087008312A300FF3083168800E9
:1002500024308312860009308700851105120518A5
:0E026000192885187F280519E5282F29630025
:04400E00A42FFF3F9D
:00000001FF
;PIC16F887
;CRC=22C5  CREATED="04-mar.-21 14:50"
