:1000000003308A00A12B0000FF00030E8301A10032
:100010000A08A0008A010408A2007708A300780853
:10002000A4007908A5007A08A600831383120B1E8A
:100030001B288B182C28220884002308F70024088A
:10004000F8002508F9002608FA0020088A00210E89
:100050008300FF0E7F0E09008A110A1244285730D0
:10006000840083130008031943280130F800F701C6
:10007000F70B3828F80B37284A30F700F70B3E28E3
:100080004128800B3528080048308600091852287E
:1000900007108714FA30D7002F208710FA30D700C6
:1000A0002F2046288B108A110A121B2888196F28C6
:1000B000861106118614A7018B1BA7178B1328081E
:1000C000D7002F20A71B8B178610A7018B1BA71704
:1000D0008B132808D7002F20A71B8B1756288615AF
:1000E00088188928061386160616A7018B1BA717E2
:1000F0008B132808D7002F20A71B8B170612A701E8
:100100008B1BA7178B132808D7002F20A71B8B1733
:1001100070280617871BA328081388178617A701BE
:100120008B1BA7178B132808D7002F20A71B8B1713
:100130008613A7018B1BA7178B132808D7002F2026
:10014000A71B8B178A2808178A110A12F12B07158B
:10015000871AAC280715A828071108008715871AE1
:10016000B3288715AF28871108000716871ABC28FF
:10017000081ABC280716B628081EDE28071487149C
:100180000230D500A7018B1BA7178B13FA30D700BD
:100190002F20A71B8B17D50BC22807108710023002
:1001A000D500A7018B1BA7178B13FA30D7002F2080
:1001B000A71B8B17D50BD128BE28DF2807120800F4
:1001C00008196B2A0508A900A908031D02290819A6
:1001D00002290508A900861106158614A7018B1BA4
:1001E000A7178B132808D7002F20A71B8B17861063
:1001F000A7018B1BA7178B132808D7002F20A71B3D
:100200008B17E428051C2F29AC01AB01AB08031D9B
:100210002D29AC08031D2D29AD012D08183C031C08
:100220002929061386120616A7018B1BA7178B1305
:100230002808D7002F20A71B8B170612A7018B1B9E
:10024000A7178B132808D7002F20A71B8B17AD0AE1
:100250000D29AB0A0319AC0A06290617A720851C2D
:100260005C29AF01AE01AE08031D5A29AF08031D7A
:100270005A29B0013008183C031C5629061386126F
:100280000616A7018B1BA7178B132808D7002F2052
:10029000A71B8B170612A7018B1BA7178B13280808
:1002A000D7002F20A71B8B17B00A3A29AE0A0319D3
:1002B000AF0A33290617A720051D8929B201B1010C
:1002C000B108031D8729B208031D8729B30133082C
:1002D000183C031C8329061386120616A7018B1BE4
:1002E000A7178B132808D7002F20A71B8B170612E0
:1002F000A7018B1BA7178B132808D7002F20A71B3C
:100300008B17B30A6729B10A0319B20A60290617C5
:10031000A720851DB629B501B401B408031DB42971
:10032000B508031DB429B6013608183C031CB029D2
:10033000061386120616A7018B1BA7178B13280816
:10034000D7002F20A71B8B170612A7018B1BA717FF
:100350008B132808D7002F20A71B8B17B60A9429C8
:10036000B40A0319B50A8D290617A720051EE3292B
:10037000B801B701B708031DE129B808031DE12939
:10038000B9013908183C031CDD29081388138617A6
:10039000A7018B1BA7178B132808D7002F20A71B9B
:1003A0008B178613A7018B1BA7178B132808D70061
:1003B0002F20A71B8B17B90AC129B70A0319B80A3E
:1003C000BA290817AE20851E102ABB01BA01BA0847
:1003D000031D0E2ABB08031D0E2ABC013C08183C55
:1003E000031C0A2A081388138617A7018B1BA7175B
:1003F0008B132808D7002F20A71B8B178613A70164
:100400008B1BA7178B132808D7002F20A71B8B1730
:10041000BC0AEE29BA0A0319BB0AE7290817AE205D
:10042000051F3D2ABE01BD01BD08031D3B2ABE08B4
:10043000031D3B2ABF013F08183C031C372A081341
:1004400088138617A7018B1BA7178B132808D700C3
:100450002F20A71B8B178613A7018B1BA7178B13A6
:100460002808D7002F20A71B8B17BF0A1B2ABD0AFD
:100470000319BE0A142A0817AE20851F6A2AC10173
:10048000C001C008031D682AC108031D682AC201F3
:100490004208183C031C642A081388138617A70116
:1004A0008B1BA7178B132808D7002F20A71B8B1790
:1004B0008613A7018B1BA7178B132808D7002F20A3
:1004C000A71B8B17C20A482AC00A0319C10A412A6E
:1004D0000817AE20E028B52088199D2B0508A90033
:1004E000A908031D8E2A88198E2A0508A9008611DD
:1004F00006118614A7018B1BA7178B132808D7009A
:100500002F20A71B8B178610A7018B1BA7178B13F8
:100510002808D7002F20A71B8B17702A051CBB2A81
:10052000C401C301C308031DB92AC408031DB92AA5
:10053000C5014508183C031CB52A06138612061689
:10054000A7018B1BA7178B132808D7002F20A71BE9
:100550008B170612A7018B1BA7178B132808D70030
:100560002F20A71B8B17C50A992AC30A0319C40A8F
:10057000922A0617A720851CE82AC701C601C608CB
:10058000031DE62AC708031DE62AC8014808183CCF
:10059000031CE22A061386120616A7018B1BA71757
:1005A0008B132808D7002F20A71B8B170612A70133
:1005B0008B1BA7178B132808D7002F20A71B8B177F
:1005C000C80AC62AC60A0319C70ABF2A0617A720DF
:1005D000051D152BCA01C901C908031D132BCA0823
:1005E000031D132BCB014B08183C031C0F2B0613C8
:1005F00086120616A7018B1BA7178B132808D70096
:100600002F20A71B8B170612A7018B1BA7178B1375
:100610002808D7002F20A71B8B17CB0AF32AC90A5B
:100620000319CA0AEC2A0617A720851D422BCD0103
:10063000CC01CC08031D402BCD08031D402BCE015F
:100640004E08183C031C3C2B081388138617A7017F
:100650008B1BA7178B132808D7002F20A71B8B17DE
:100660008613A7018B1BA7178B132808D7002F20F1
:10067000A71B8B17CE0A202BCC0A0319CD0A192BE6
:100680000817AE20051E6F2BD001CF01CF08031D28
:100690006D2BD008031D6D2BD1015108183C031C94
:1006A000692B081388138617A7018B1BA7178B13B9
:1006B0002808D7002F20A71B8B178613A7018B1B99
:1006C000A7178B132808D7002F20A71B8B17D10A39
:1006D0004D2BCF0A0319D00A462B0817AE20851ED2
:1006E0009C2BD301D201D208031D9A2BD308031DE2
:1006F0009A2BD4015408183C031C962B081388131A
:100700008617A7018B1BA7178B132808D7002F204C
:10071000A71B8B178613A7018B1BA7178B13280802
:10072000D7002F20A71B8B17D40A7A2BD20A0319C4
:10073000D30A732B0817AE206C2AB5208A110A122F
:10074000F32B03081F398300613083168F0090015B
:100750000F0805308312A800A901FF30AA008316F4
:1007600003170908C039890003131F129F120030B4
:100770000317880083128701880189018313FF30E2
:1007800083160313850001308600E0308700831252
:10079000AA003F30831688000914891409158915A9
:1007A00048308312860087018801C0308B040B1605
:1007B0000918EF2B0714A7018B1BA7178B13C83041
:1007C000D7002F20A71B8B170710A7018B1BA7177C
:1007D0008B13C830D7002F20A71B8B17D82B0714DB
:0A07E00056280714E028F12B6300EF
:04400E00A42FFF3F9D
:00000001FF
;PIC16F887
;CRC=3573  CREATED="04-mar.-21 13:48"
